:020000020000FC
:1000000008E00EBF0FEF0DBF0E9420000E942B00E2
:100010000E9427000E9414000E9418000E941A00EB
:10002000003151F00C940A0003B10D93039508952B
:10003000401F089548B908950E9427000C940A00B3
:100040000F9300E004B90FEF07B90F910895A0E0F6
:10005000B1E000270895B1E0A0E000E80D930CE3C3
:100060000D930FEF0D9306E20D9302E60D9304E05E
:100070000D9303E90D930FE60D9308ED0D930FEB30
:100080000D930CE40D930BEB0D9301E80D9305ED2F
:0C0090000D930EED0D930AEE0D930895F4
:00000001FF
