:020000020000FC
:0200000006C038
:10000C0011C008E00EBF0FEF0DBF00270E9431009A
:10001C000E943A0040E00E9424000E942D00889526
:10002C000C9415000E941F000E9424000E942D00B9
:10003C00189543B14F70493064F408954F93E2E83A
:10004C00F0E0E40F4427F41F54914F9108955BB9ED
:10005C0008954FE008950F9301E0009368000FE0BE
:10006C0000936B00789408950F9300E004B90FE7A8
:10007C000AB90F9108957E306D79335B5F707F7B89
:06008C00777C395E7971FA
:00000001FF
